:100000000C947B000C94A3000C94A3000C94A3000C
:100010000C94A3000C94A3000C94A3000C94A300D4
:100020000C94A3000C94A3000C94A3000C94A300C4
:100030000C94A3000C94A3000C94A3000C94A300B4
:100040000C94C8030C94A3000C9438040C94120470
:100050000C94A3000C94A3000C94A3000C94A30094
:100060000C94A3000C94A3004E414E494E495459A0
:10007000494E46CDCCCC3D0AD7233C17B7D1387773
:10008000CC2B329595E6241FB14F0A000020410089
:1000900000C84200401C4620BCBE4CCA1B0E5AAED3
:1000A000C59D7400000000240027002A0000000005
:1000B00000250028002B00040404040404040402A6
:1000C00002020202020303030303030102040810F5
:1000D00020408001020408102001020408102000C2
:1000E00000000800020100000304070000000000F7
:1000F000000000006A0411241FBECFEFD8E0DEBF6D
:10010000CDBF22E0AEE7B1E001C01D92A034B2073E
:10011000E1F711E0A0E0B1E0ECEBFCE102C00590FA
:100120000D92AE37B107D9F710E0CBE7D0E004C0AD
:100130002197FE010E94640CCA37D107C9F70E94BB
:100140009F040C945C0E0C94000090E0FC01E152C2
:10015000FF4F2491FC01E553FF4F3491FC01E9541A
:10016000FF4FE491EE23C9F0222339F0233001F14F
:10017000A8F4213019F1223029F1F0E0EE0FFF1F31
:10018000E355FF4FA591B4918FB7F894EC916111AD
:1001900026C030953E233C938FBF08952730A9F0A9
:1001A0002830C9F0243049F7809180008F7D03C04A
:1001B000809180008F7780938000DFCF84B58F7728
:1001C00084BDDBCF84B58F7DFBCF8091B0008F776E
:1001D0008093B000D2CF8091B0008F7DF9CF3E2BBD
:1001E000DACF3FB7F89480918F0190919001A09160
:1001F0009101B091920126B5A89B05C02F3F19F03F
:100200000196A11DB11D3FBFBA2FA92F982F882796
:10021000BC01CD01620F711D811D911D42E0660F71
:10022000771F881F991F4A95D1F70895AF92BF9203
:10023000CF92DF92EF92FF920F931F93CF93DF93B2
:100240006C017B018B01040F151FEB015E01AE18E1
:10025000BF08C017D10759F06991D601ED91FC9103
:100260000190F081E02DC6010995892B79F7C50130
:10027000DF91CF911F910F91FF90EF90DF90CF9082
:10028000BF90AF900895FC01538D448D252F30E031
:10029000842F90E0821B930B541710F0CF96089593
:1002A00001970895FC01918D828D981761F0A28DC0
:1002B000AE0FBF2FB11D5D968C91928D9F5F9F7386
:1002C000928F90E008958FEF9FEF08952FB7F894E5
:1002D0008091930190919401A0919501B091960124
:1002E0002FBF80939F019093A001A093A101B09391
:1002F000A20187E991E00E94520197FF26C02FB723
:10030000F8948091930190919401A0919501B091FE
:1003100096012FBF40919F015091A0016091A101D2
:100320007091A201841B950BA60BB70B40919B010A
:1003300050919C0160919D0170919E0184179507D9
:10034000A607B707B0F28FEF9FEF0895FC01918DDC
:10035000828D981731F0828DE80FF11D858D90E028
:1003600008958FEF9FEF0895FC01918D228D892FC5
:1003700090E0805C9F4F821B91098F7399270895AD
:1003800087E991E00E94B40121E0892B09F420E083
:10039000822F089580E090E0892B29F00E94C0010F
:1003A00081110C9400000895FC01A48DA80FB92FB1
:1003B000B11DA35ABF4F2C91848D90E001968F738D
:1003C0009927848FA689B7892C93A089B1898C91AC
:1003D000837080648C93938D848D981306C00288FB
:1003E000F389E02D80818F7D80830895EF92FF92C5
:1003F0000F931F93CF93DF93EC0181E0888F9B8D48
:100400008C8D98131AC0E889F989808185FF15C001
:100410009FB7F894EE89FF896083E889F989808124
:100420008370806480839FBF81E090E0DF91CF91F3
:100430001F910F91FF90EF900895F62E0B8D10E015
:100440000F5F1F4F0F731127E02E8C8D8E110CC084
:100450000FB607FCFACFE889F989808185FFF5CFCF
:10046000CE010E94D401F1CFEB8DEC0FFD2FF11DD9
:10047000E35AFF4FF0829FB7F8940B8FEA89FB890C
:1004800080818062CFCFCF93DF93EC01888D88236A
:10049000B9F0AA89BB89E889F9898C9185FD03C0E7
:1004A000808186FD0DC00FB607FCF7CF8C9185FFCC
:1004B000F2CF808185FFEDCFCE010E94D401E9CF3C
:1004C000DF91CF91089560E08DE00E94A50060E08B
:1004D0008CE00E94A50060E08BE00E94A50060E037
:1004E0008AE00C94A500FC0101900020E9F7319707
:1004F000AF01481B590BBC0187E991E00C94160130
:100500008F929F92AF92BF920F931F93CF93DF93DF
:10051000CDB7DEB7A1970FB6F894DEBF0FBECDBF43
:1005200019A2423008F44AE08E010F5D1F4F842E5D
:10053000912CB12CA12CA50194010E94420CE62F14
:10054000B901CA01EA30F4F4E05DD801EE938D01FF
:10055000232B242B252B79F790E080E0109719F0BE
:10056000CD010E947302A1960FB6F894DEBF0FBEB4
:10057000CDBFDF91CF911F910F91BF90AF909F9012
:100580008F900895E95CE1CF4F925F926F927F92D6
:100590008F929F92AF92BF92CF92DF92EF92FF9293
:1005A0000F931F93CF936B017C01742EAC019B01C1
:1005B0000E943D0C882399F080E391E0CF911F9138
:1005C0000F91FF90EF90DF90CF90BF90AF909F90F2
:1005D0008F907F906F905F904F900C9473024601C4
:1005E0005701E894B7F82FEF3FEF4FE75FE7C501FA
:1005F000B4010E943D0C81110DC02FEF3FEF4FE77A
:100600005FE7C501B4010E94B20918161CF484E327
:1006100091E0D4CF2FEF3FEF4FE75FE4C701B60182
:100620000E94380C18161CF488E391E0C7CF2FEF16
:100630003FEF4FE75FECC701B6010E94B20987FDAB
:10064000F3CF20E030E0A901C701B6010E94B20952
:1006500010E000E087FF0AC06DE287E991E00E94A8
:10066000F6018C01F7FAF094F7F8F094C0E060E03E
:1006700070E080E09FE37C1641F020E030E040E253
:1006800051E40E94970BCF5FF6CFA70196010E941D
:100690002B0B2B013C010E94090C4B015C014AE031
:1006A0000E9480027C01E00EF11ECC23C1F1C50145
:1006B000B4010E94B7099B01AC01C301B2010E94C1
:1006C0002A0B4B015C016EE287E991E00E94F60182
:1006D000E80EF91EC15018F120E030E040E251E48C
:1006E000C501B4010E94180A2B013C010E94090CAB
:1006F0004B01B12CA12C4AE0C501B4010E9480023B
:10070000E80EF91EC501B4010E94B7099B01AC01B6
:10071000C301B2010E942A0B4B015C01DBCFC70170
:10072000CF911F910F91FF90EF90DF90CF90BF90EE
:10073000AF909F908F907F906F905F904F900895B3
:100740000F931F93CF93DF93EC01888199810097DA
:1007500059F02A813B812617370730F081E0DF917D
:10076000CF911F910F9108958B016F5F7F4F0E9472
:100770008F0D009759F0998388831B830A832C81FE
:100780003D81232B59F7FC011082E8CF80E0E7CFB1
:100790001F920F920FB60F9211242F933F938F93B6
:1007A0009F93AF93BF938091930190919401A091F7
:1007B0009501B091960130918E0123E0230F2D37E2
:1007C00058F50196A11DB11D20938E0180939301D0
:1007D00090939401A0939501B093960180918F011D
:1007E00090919001A0919101B09192010196A11D6B
:1007F000B11D80938F0190939001A0939101B093CC
:100800009201BF91AF919F918F913F912F910F9046
:100810000FBE0F901F90189526E8230F0296A11D7A
:10082000B11DD2CF1F920F920FB60F9211242F93AA
:100830003F934F935F936F937F938F939F93AF9368
:10084000BF93EF93FF9387E991E00E94D401FF915A
:10085000EF91BF91AF919F918F917F916F915F9138
:100860004F913F912F910F900FBE0F901F901895B1
:100870001F920F920FB60F9211242F938F939F9375
:10088000EF93FF93E091A701F091A8018081E0919F
:10089000AD01F091AE0182FD1BC090818091B0014D
:1008A0008F5F8F732091B101821741F0E091B00109
:1008B000F0E0E956FE4F958F8093B001FF91EF91E4
:1008C0009F918F912F910F900FBE0F901F901895B1
:1008D0008081F4CFE7E9F1E01382128288EE93E0A1
:1008E000A0E0B0E084839583A683B78382E291E0A1
:1008F0009183808385EC90E09587848784EC90E0F9
:100900009787868780EC90E0918B808B81EC90E0DC
:10091000938B828B82EC90E0958B848B86EC90E0BD
:10092000978B868B118E128E138E148EE4E3F2E079
:100930001182108213821282158214820895CF933D
:10094000DF93CDB7DEB7EA970FB6F894DEBF0FBEE0
:10095000CDBF789484B5826084BD84B5816084BD48
:1009600085B5826085BD85B5816085BD80916E004D
:10097000816080936E00109281008091810082607E
:1009800080938100809181008160809381008091BB
:1009900080008160809380008091B10084608093AA
:1009A000B1008091B00081608093B00080917A00A6
:1009B000846080937A0080917A00826080937A00CC
:1009C00080917A00816080937A0080917A008068BB
:1009D00080937A001092C100E091A701F091A801E4
:1009E00082E08083E091A301F091A4011082E09164
:1009F000A501F091A6018FEC80831092AF01E091E8
:100A0000AB01F091AC0186E08083E091A901F09107
:100A1000AA01808180618083E091A901F091AA01FF
:100A2000808188608083E091A901F091AA01808192
:100A300080688083E091A901F091AA0180818F7D77
:100A400080830E94F1004B015C0138EEC32E33E03D
:100A5000D32EE12CF12C0E94F100681979098A0942
:100A60009B09683E734081059105A8F321E0C21AF5
:100A7000D108E108F10838EE830E33E0931EA11C83
:100A8000B11CC114D104E104F10429F706E111E01D
:100A90008EE1E82E81E0F82EE016F10659F1D8013A
:100AA0008D919C9111979927FC01E553FF4F44913B
:100AB000FC01E954FF4FE491EE23A9F08E2F90E062
:100AC000880F991FFC01ED55FF4F25913491FC01D2
:100AD000E355FF4F859194918FB7F894F901908178
:100AE000492B40838FBF0E5F1F4F60E08C910E94A7
:100AF000A500D2CF8EE791E0909335028093340227
:100B000084E090E09093370280933602E0E0F1E0D9
:100B100090E080E08430910588F4DC01AA0FBB1FCF
:100B2000AA0FBB1FA258BE4F4081518162817381C1
:100B30004D935D936D937C9313970196349621E0CA
:100B4000E031F20739F7909339028093380287E950
:100B500091E00E94B401181619060CF05FC01A82C9
:100B600019821C821B821E821D8270E060E0CE0111
:100B700001960E94A00329813A8181112BC0211581
:100B8000310519F0C9010E94060D1A8219821E82D0
:100B90001D821C821B820E94660197FD23C08D8BE3
:100BA0001E8A0D811E810F5F1F4FB801CE01019675
:100BB0000E94A003882379F329813A818D819E8147
:100BC000BE016B5E7F4F820F931F0E94550E1E83E6
:100BD0000D83E1CF1E821D8264E671E0C9010E948F
:100BE000550ED9CF89819A81C12CD12C76010097DD
:100BF00021F00E943D086B017C0189819A81009758
:100C000011F00E94060D20E030E0A901C701B601F5
:100C10000E94B20981110FC00E946302E0E0F0E07F
:100C2000EF2B09F494CF0E94C001882309F48FCFE1
:100C30000E9400008CCF209138023091390286E06A
:100C4000E4E3F2E0DE01959601900D928A95E1F7DA
:100C5000409134025091350258AF4FAB912C812C0A
:100C600090E080E08217930709F465C054E0851690
:100C70009104F8F4F401EE0FFF1FEE0FFF1FA1E047
:100C8000B0E0AC0FBD1FEA0FFB1FDC01AA0FBB1FBA
:100C9000AA0FBB1F4FA958ADA40FB51F4D915D9171
:100CA0006D917C91448B558B668B778BD40111961B
:100CB0004D010196D7CF490120E030E0A901C701DD
:100CC000B6010E94380C1816C4F1FE0131967F015E
:100CD0006F0110E000E04FA558A90417150709F4AB
:100CE000B4C185E691E00E947302D6018D909D907B
:100CF0006D01BFEF8B1A9B0A092C000CAA08BB08D8
:100D00004AE0C501B401B7FE0DC06DE287E991E08C
:100D10000E94F60166277727CB01681979098A09AD
:100D20009B094AE00E94800282E691E00E947302E1
:100D30000F5F1F4FD0CF18AA1FA68114910429F26C
:100D40007D886E885F88488CA7019601672D762D77
:100D5000852D942D0E94380C87FFE5C09401215009
:100D600031093EAB2DABF901EE0FFF1FEE0FFF1F58
:100D700041E050E04C0F5D1FE40FF51F748865885B
:100D800056884788A7019601672D762D852D942DCD
:100D90000E94B20918160CF0C6C05401312C212C47
:100DA0001CA61BA68BA59CA58A159B050CF0ADC0A7
:100DB0001C012A0C3B1C37FE03C09FEF291A390A7D
:100DC000359427948101000F111F000F111FE5E1D9
:100DD000F0E0EC0FFD1FE00FF11F7080618052808A
:100DE0004380A7019601672D762D852D942D0E94B5
:100DF000B209882309F497C0A7019601672D762DC3
:100E0000852D942D0E94380C1816DCF5121413044D
:100E1000B4F5E1E1F0E0EC0FFD1FE00FF11F008100
:100E2000A180B2801381A7019601602F7A2D8B2DAE
:100E3000912F0E94B20987FF22C0202F3A2D4B2DFF
:100E4000512FC701B6010E942A0B6BA77CA78DA763
:100E50009EA7A7019601672D762D852D942D0E94C2
:100E60002A0B9B01AC016BA57CA58DA59EA50E94BC
:100E7000380C87FF58C0702E6A2C5B2C44C051017F
:100E800091CFD1011196BCA7ABA7EDA9FEA92E1653
:100E90003F060CF087CFE9E1F0E0EC0FFD1FE00F1B
:100EA000F11F008121812BAB32813CAB1381A70163
:100EB0009601602F7BA98CA9912F0E94380C1816DF
:100EC0000CF070CF272D362D452D542DC701B601BE
:100ED0000E942A0B6BA77CA78DA79EA7A70196014E
:100EE000602F7BA98CA9912F0E942A0B9B01AC013A
:100EF0006BA57CA58DA59EA50E94380C87FD13C00F
:100F0000702E6BA85CA8412E0EC0220C331C220C44
:100F1000331CE1E0F0E0EC0FFD1FE20DF31D7488DF
:100F20006588568847888CE391E00E94730242E00E
:100F3000C701B6010E94C40287E491E00E947302D7
:100F400042E0672D762D852D942D0E94C40282E605
:100F500091E00E947302272D362D452D542DC70197
:100F6000B6010E942A0B6B017C0129A43AA4AFA808
:100F7000B8AC10E000E0021513059CF4D5012D91EA
:100F80003D914D915D915D01672D762D852D942DBF
:100F90000E94B209882319F00F5F1F4FECCF09AFF1
:100FA0001AAFEFA5F8A9EA30F10588F4EE0FFF1F9C
:100FB00021E030E02C0F3D1FE20FF31F39AD3083ED
:100FC0004AAD41838FA598A9019698AB8FA75E0182
:100FD00095E1A90EB11C10E000E0081519059CF47C
:100FE000D5012D913D914D915D915D01672D762D3E
:100FF000852D942D0E94B209882319F00F5F1F4F91
:10100000ECCF1AAB09AB89A99AA98815990508F004
:1010100053CEFC01EE0FFF1FEE0FFF1F25E130E066
:101020002C0F3D1FE20FF31F94012150310982174D
:10103000930708F040CE01964481558166817781FF
:101040004193519361937193F2CF0E946302D12C2B
:10105000C12CC016D10609F4E1CDD701ED91FD9167
:101060007D01EE0FFF1FEA5EFE4F61E080810E946E
:10107000A500BFEFCB1ADB0AECCF662777270C94CD
:101080004108B0E0A0E0E7E4F8E00C94EA0A5C0173
:101090007B016115710519F0DB018D939C9385012E
:1010A0000F5F1F4FF501D0818D2F90E00E949109B5
:1010B0006C01892BB9F5DD32B9F50F5F1F4FD501F2
:1010C0001196DC91C1E05801F1E0AF1AB10843E09C
:1010D00050E060E770E0C5010E949A09892B69F52C
:1010E000680182E0C80ED11C45E050E06BE670E07C
:1010F000C6010E949A09892B21F4680197E0C90E64
:10110000D11CE114F10419F0D701CD92DC9260E01A
:1011100070E080E89FEFC111FFC060E070E080E800
:101120009FE7FAC05801BBCFDB3229F485010E5F7F
:101130001F4FF501D181C0E0C6CF43E050E068E623
:1011400070E0C5010E949A09892BE9F0F80110E0CE
:1011500000E020E030E0A9015F01B0ED8B2E8D0EA4
:1011600089E08815C8F19C2E689491F88C2F8870BE
:10117000C2FF16C0811102C00F5F1F4F3196D5010B
:10118000DC91C92DE9CFE114F10429F00E5F1F4F66
:10119000F7011183008360E070E080EC9FE7BCC042
:1011A000882311F001501109A5E0B0E00E94D90A8E
:1011B0009B01AC01220F331F441F551F280D311D09
:1011C000411D511D283999E93907490799E1590706
:1011D000A8F2C6609C2ED2CFAEEF8A1206C0C3FD25
:1011E0003CC09C2E689493F8C9CFDF7DD534A9F517
:1011F00080818D3239F4C061DF011296818162E015
:1012000070E006C0DF018B32C1F3119661E070E03F
:1012100080535D01A61AB70A8A30F8F4E0E8CE16CA
:10122000ECE0DE065CF4B601660F771F660F771FF1
:10123000C60ED71ECC0CDD1CC80ED11C5D01FFEF05
:10124000AF1ABF0A8C9180538A30A8F1C4FF03C043
:10125000D194C194D1080C0D1D1DC1FF09C0E1142A
:10126000F10431F081E0A81AB108D701AD92BC9227
:10127000CA01B9010E94B709C370C33009F490587C
:101280004B015C0120E030E0A9010E94B2098823F3
:1012900009F440C0CFE9D0E017FF05C011950195D2
:1012A0001109C7E8D0E06E01B8E1CB1AD10880E29D
:1012B000E82EF12C0FC0D501B1CFFE01259135915B
:1012C000459154910E191F09C501B4010E94180AD5
:1012D0004B015C01D501C4010E151F0574F724975D
:1012E000F594E794CC16DD06A9F78A2F880F8B2F8B
:1012F000881F8F3F49F020E030E0A901C501B4010B
:101300000E94B209811106C082E290E090933B02F4
:1013100080933A02C501B401CDB7DEB7ECE00C947E
:10132000060B91110C94850A803219F08950855072
:10133000C8F70895FB01DC014150504088F08D91C1
:1013400081341CF08B350CF4805E659161341CF0A7
:101350006B350CF4605E861B611171F3990B089577
:10136000881BFCCF0E94F40908F481E00895E894FA
:1013700009C097FB3EF490958095709561957F4FDD
:101380008F4F9F4F9923A9F0F92F96E9BB2793958B
:10139000F695879577956795B795F111F8CFFAF49B
:1013A000BB0F11F460FF1BC06F5F7F4F8F4F9F4FCC
:1013B00016C0882311F096E911C0772321F09EE82A
:1013C000872F762F05C0662371F096E8862F70E090
:1013D00060E02AF09A95660F771F881FDAF7880F6A
:1013E0009695879597F90895990F0008550FAA0BC0
:1013F000E0E8FEEF16161706E807F907C0F0121628
:101400001306E407F50798F0621B730B840B950B2A
:1014100039F40A2661F0232B242B252B21F408957F
:101420000A2609F4A140A6958FEF811D811D08951C
:101430000E942B0A0C949F0A0E94910A38F00E9485
:10144000980A20F0952311F00C94880A0C948E0AC7
:1014500011240C94D30A0E94B00A70F3959FC1F333
:10146000950F50E0551F629FF001729FBB27F00D52
:10147000B11D639FAA27F00DB11DAA1F649F6627A7
:10148000B00DA11D661F829F2227B00DA11D621FF6
:10149000739FB00DA11D621F839FA00D611D221FB0
:1014A000749F3327A00D611D231F849F600D211D94
:1014B000822F762F6A2F11249F5750409AF0F1F017
:1014C00088234AF0EE0FFF1FBB1F661F771F881F80
:1014D00091505040A9F79E3F510580F00C94880A26
:1014E0000C94D30A5F3FE4F3983ED4F38695779546
:1014F0006795B795F795E7959F5FC1F7FE2B880F26
:10150000911D9695879597F90895992788270895AD
:1015100097F99F6780E870E060E008959FEF80ECA6
:10152000089500240A941616170618060906089549
:1015300000240A9412161306140605060895092EAF
:101540000394000C11F4882352F0BB0F40F4BF2B1E
:1015500011F460FF04C06F5F7F4F8F4F9F4F08955E
:1015600057FD9058440F551F59F05F3F71F0479554
:10157000880F97FB991F61F09F3F79F08795089539
:10158000121613061406551FF2CF4695F1DF08C058
:10159000161617061806991FF1CF86957105610575
:1015A00008940895E894BB2766277727CB0197F91D
:1015B00008950E941B0BA59F900DB49F900DA49FB2
:1015C000800D911D112408952F923F924F925F92AA
:1015D0006F927F928F929F92AF92BF92CF92DF9243
:1015E000EF92FF920F931F93CF93DF93CDB7DEB7A8
:1015F000CA1BDB0B0FB6F894DEBF0FBECDBF09943C
:101600002A88398848885F846E847D848C849B8492
:10161000AA84B984C884DF80EE80FD800C811B81A0
:10162000AA81B981CE0FD11D0FB6F894DEBF0FBECF
:10163000CDBFED010895A29FB001B39FC001A39F4C
:10164000700D811D1124911DB29F700D811D1124FB
:10165000911D08955058BB27AA270E94420B0C9455
:101660009F0A0E94910A38F00E94980A20F039F4EB
:101670009F3F19F426F40C948E0A0EF4E095E7FBD4
:101680000C94880AE92F0E94B00A58F3BA1762072F
:1016900073078407950720F079F4A6F50C94D20A15
:1016A0000EF4E0950B2EBA2FA02D0B01B90190017D
:1016B0000C01CA01A0011124FF27591B99F0593FC1
:1016C00050F4503E68F11A16F040A22F232F342F09
:1016D0004427585FF3CF469537952795A795F04057
:1016E0005395C9F77EF41F16BA0B620B730B840B6C
:1016F000BAF09150A1F0FF0FBB1F661F771F881F24
:10170000C2F70EC0BA0F621F731F841F48F487957B
:1017100077956795B795F7959E3F08F0B0CF93956D
:10172000880F08F09927EE0F9795879508950E94E6
:10173000AB0B0C949F0A0E94980A58F00E94910AE1
:1017400040F029F45F3F29F00C94880A51110C9461
:10175000D30A0C948E0A0E94B00A68F39923B1F35D
:10176000552391F3951B550BBB27AA2762177307C7
:10177000840738F09F5F5F4F220F331F441FAA1F5B
:10178000A9F335D00E2E3AF0E0E832D09150504017
:10179000E695001CCAF72BD0FE2F29D0660F771FC5
:1017A000881FBB1F261737074807AB07B0E809F0AB
:1017B000BB0B802DBF01FF2793585F4F3AF09E3F30
:1017C000510578F00C94880A0C94D30A5F3FE4F337
:1017D000983ED4F3869577956795B795F7959F5F73
:1017E000C9F7880F911D9695879597F90895E1E0BF
:1017F000660F771F881FBB1F621773078407BA071E
:1018000020F0621B730B840BBA0BEE1F88F7E09578
:1018100008950E94B80A88F09F5798F0B92F992729
:10182000B751B0F0E1F0660F771F881F991F1AF0CB
:10183000BA95C9F714C0B13091F00E94D20AB1E054
:1018400008950C94D20A672F782F8827B85F39F053
:10185000B93FCCF3869577956795B395D9F73EF464
:1018600090958095709561957F4F8F4F9F4F08950C
:101870000E94F40908F48FEF08950E94F409880B80
:10188000990B0895A1E21A2EAA1BBB1BFD010DC0E6
:10189000AA1FBB1FEE1FFF1FA217B307E407F50720
:1018A00020F0A21BB30BE40BF50B661F771F881FFC
:1018B000991F1A9469F760957095809590959B0192
:1018C000AC01BD01CF010895EE0FFF1F0590F4910B
:1018D000E02D09940F931F93CF93DF9382309105EE
:1018E00010F482E090E0E0913E02F0913F0230E09F
:1018F00020E0B0E0A0E0309799F42115310509F41B
:101900004AC0281B390B24303105D8F58A819B81C8
:101910006115710589F1FB0193838283FE0111C07A
:10192000408151810281138148175907E0F048171F
:10193000590799F4109761F012960C931297139629
:101940001C933296CF01DF91CF911F910F91089593
:1019500000933E0210933F02F4CF2115310551F060
:101960004217530738F0A901DB019A01BD01DF01DD
:10197000F801C1CFEF01F9CF90933F0280933E026F
:10198000CDCFFE01E20FF31F8193919322503109D5
:1019900039832883D7CF20913C0230913D02232BFD
:1019A00041F4209112013091130130933D022093B4
:1019B0003C0220911001309111012115310541F4B3
:1019C0002DB73EB74091140150911501241B350BE2
:1019D000E0913C02F0913D02E217F307A0F42E1BC8
:1019E0003F0B2817390778F0AC014E5F5F4F241783
:1019F000350748F04E0F5F1F50933D0240933C0265
:101A0000819391939FCFF0E0E0E09CCFCF93DF9361
:101A10000097E9F0FC01329713821282A0913E02F6
:101A2000B0913F02ED0130E020E01097A1F4208159
:101A30003181820F931F20913C0230913D02281783
:101A4000390709F061C0F0933D02E0933C02DF9159
:101A5000CF910895EA01CE17DF07E8F54A815B814F
:101A60009E0141155105B1F7E901FB83EA834991D4
:101A70005991C40FD51FEC17FD0761F48081918146
:101A80000296840F951FE90199838883828193814F
:101A90009B838A83F0E0E0E012968D919C911397EE
:101AA0000097B9F52D913C911197CD010296820FC7
:101AB000931F20913C0230913D022817390739F6D7
:101AC000309751F510923F0210923E02B0933D02C2
:101AD000A0933C02BCCFD383C28340815181840F49
:101AE000951FC817D90761F44E5F5F4F88819981B0
:101AF000480F591F518340838A819B81938382833E
:101B00002115310509F0B0CFF0933F02E0933E027A
:101B10009ECFFD01DC01C0CF13821282D7CFB0E08F
:101B2000A0E0E5E9FDE00C94E60A8C01009751F491
:101B3000CB010E946A0C8C01C801CDB7DEB7E0E191
:101B40000C94020BFC01E60FF71F9C012250310997
:101B5000E217F30708F49DC0D901CD91DC911197EC
:101B6000C617D70798F0C530D10530F3CE010497DA
:101B70008617970708F3C61BD70B2297C193D193FB
:101B80006D937C93CF010E94060DD6CF5B01AC1AFA
:101B9000BD0A4C018C0E9D1EA0913E02B0913F02E9
:101BA000512C412CF12CE12C109731F580913C0205
:101BB00090913D028815990509F05CC046165706BC
:101BC00008F058C08091100190911101009741F4E4
:101BD0008DB79EB74091140150911501841B950B50
:101BE000E817F90708F055C0F0933D02E0933C0276
:101BF000F90171836083A0CF8D919C91119712960A
:101C00006C90129713967C901397A815B90559F507
:101C10006C0142E0C40ED11CCA14DB0420F1AC01FB
:101C20004A195B09DA011296159780F06282738275
:101C300051834083D9016D937C93E114F10471F0D9
:101C4000D7011396FC93EE93129776CF22968C0FC2
:101C50009D1FF90191838083F301EFCFF0933F0241
:101C6000E0933E0269CF4816590608F42C017D0125
:101C7000D3019ACFCB010E946A0C7C01009749F0F6
:101C8000AE01B8010E944C0EC8010E94060D8701EA
:101C900053CF10E000E050CFFB01DC0102C0019007
:101CA0000D9241505040D8F70895FB01DC0101909E
:0C1CB0000D920020E1F70895F894FFCF9A
:101CBC0000002040000040409A99F9400000484143
:101CCC000000400280000D000C000B000A00000018
:101CDC000000F601160143014302B4015201A601B2
:101CEC006E616E00696E66006F7666007461726775
:101CFC006574206973200020616E6420746865200F
:101D0C00636C6F736573742076616C756520697391
:101D1C0020000D0A00737769746368204361706159
:0E1D2C006369746F72204E756D6265722000DF
:00000001FF
